:0400000062EF0EF0AD
:100F00000001000A006400E803102725647C2573B3
:100F10007C25647C25647C25647C25647C256300B9
:100F2000286E756C6C290030300032300041300082
:100F30004230003231004131004231003232004152
:100F400032004232004633004634004141006F6EA9
:100F5000000025C001F04B0E026E83EC0EF0015034
:100F60000210D8A43FD00B0E0D6E000E0F6E010EB6
:100F70000E6E4E0E106E1050D8A40F0E116E58C08B
:100F800012F059C013F040C014F0156A41C016F0B9
:100F9000176A42C018F0196A000E1B6E0D0E1A6E09
:100FA0001BEC0AF00B0E0D6E000E0F6E020E0E6E95
:100FB0004E0E106E1050D8A40F0E116E5AC012F0C3
:100FC0005BC013F060C014F0156A61C016F0176AB8
:100FD00062C018F0196A000E1B6E0D0E1A6E1BEC23
:100FE0000AF0120025C001F0270E026E000E046EFA
:100FF000020E036E78EC0DF001500210D8A403D05D
:10100000E1EC0DF0120025C001F03C0E026E000E66
:10101000046E020E036E78EC0DF001500210D8A49D
:1010200005D0000E396E020E386E120025C001F098
:10103000330E026E000E046E020E036E78EC0DF09D
:1010400001500210D8A405D0000E396E010E386E82
:10105000120025C001F02A0E026E000E046E020E70
:10106000036E78EC0DF001500210D8A405D0000EEC
:10107000396E000E386E120025C001F03F0E026E70
:10108000000E046E020E036E78EC0DF0015002109B
:10109000D8A40BD0000E026E020E016E000E046E7C
:1010A000010E036EADEC0DF0120025C001F0420EF2
:1010B000026E000E046E020E036E78EC0DF001500D
:1010C0000210D8A40AD0000E026E020E016EFF0EAE
:1010D000046E0368ADEC0DF0120025C001F0360E71
:1010E000026E000E046E020E036E78EC0DF00150DD
:1010F0000210D8A40BD0000E026E010E016E000E7D
:10110000046E010E036EADEC0DF0120025C001F06F
:10111000390E026E000E046E020E036E78EC0DF0B6
:1011200001500210D8A40AD0000E026E010E016E0A
:10113000FF0E046E0368ADEC0DF0120025C001F047
:101140002D0E026E000E046E020E036E78EC0DF092
:1011500001500210D8A40BD0000E026E000E016EDA
:10116000000E046E010E036EADEC0DF0120025C0F2
:1011700001F0300E026E000E046E020E036E78EC6B
:101180000DF001500210D8A40AD0000E026E000E1D
:10119000016EFF0E046E0368ADEC0DF0120025C069
:1011A00001F0480E026E000E046E020E036E78EC23
:1011B0000DF001500210D8A407D0FF0E066EF60EF7
:1011C000056E05EC0DF0120025C001F0450E026E13
:1011D000000E046E020E036E78EC0DF0015002104A
:1011E000D8A41200000E066E0A0E056E05EC0DF076
:1011F0001200000E326E000E316EFEEC0EF02DEC81
:101200000FF05D81CF0EC116830EC216C050C70B02
:101210001009C06EC050F80B0109C06EC08EC280AC
:1012200064EC0FF0FF0E016E000E026EFF0E036EF7
:10123000000E056E010E046E020E41EC0DF0000E64
:10124000026E010E016E4DEC0CF0FF0E016EFF0EF2
:10125000026E000E036E000E056E020E046E020E8C
:1012600041EC0DF0000E026E020E016E4DEC0CF022
:10127000C282C2B2FED7C4CF3CF03D6A3C50286E59
:10128000276AC35027243C6E000E28203D6E3CC0C8
:1012900009F03DC00AF0E2EC0EF009C035F00AC0DA
:1012A00036F00BC037F0C00E1B6E7F0E1C6E440E66
:1012B0001D6E000E0C6EFA0E0D6E430E0E6E35C0D6
:1012C00009F036C00AF037C00BF0F7EC0AF009C09D
:1012D00018F00AC019F00BC01AF071EC0BF018C02E
:1012E00029F019C02AF01AC02BF029C018F02AC022
:1012F00019F02BC01AF0000E1B6E800E1C6E400EF3
:101300001D6E71EC0BF018C035F019C036F01AC024
:1013100037F035C001F036C002F037C003F0E4EC1E
:101320000BF001503E6E640E056E3E50C5EC0EF0A3
:10133000300F00017E6F0A0E056E640E016E3E5086
:1013400018EC0FF0C5EC0EF0300F00017F6F640E4B
:10135000016E3E5018EC0FF02C6E0A0E016E2C50F0
:1013600018EC0FF0300F0001806F84EC0FF03F6E2F
:101370004AD0000E346E000E336E3350780FD96EA3
:10138000DA6ADF507CEC0FF0334A342A34BEF5D7EA
:10139000345044E1110E335CD8B040D0EED73F500A
:1013A0007CEC0FF02D0E256EA9EC07F02D0E046ECF
:1013B000000E066E000E056E2D0E016E53EC0FF042
:1013C00001C007F002C008F041EC0FF0000E326ED1
:1013D000000E316E23D032BE06D0325010E1020E24
:1013E000315CD8B00CD03F507CEC0FF031502D0F59
:1013F000D96EDA6A3FC0DFFF314A322A0FD00D0EB4
:101400007CEC0FF0CFD73F500D0AD8B4C8D7590A9B
:10141000D8B4AFD7200AD8B4ACD7DDD7020E286E27
:10142000040E276EBA0EE82EFED7272EFCD7282EE4
:10143000FAD700D0F7D60E0E216ECBD0250E241889
:10144000D8B404D024507CEC0FF0C3D0000E1D6E35
:1014500047D02150D96EDA6ADECF1FF0DDCF20F001
:10146000020E21261F502010D8A41BD0200E1F6E64
:101470001F50D8A40F0E206E14D01FC0F6FF20C03E
:10148000F7FFF86A0E0EF76403D00800F55005D098
:10149000F6CFD9FFF7CFDAFFDF507CEC0FF01F4A11
:1014A000202A1FC0F6FF20C0F7FFF86A0E0EF7646F
:1014B00003D00800F55005D0F6CFD9FFF7CFDAFFFB
:1014C000DF500009D8B485D0D8D72150D96EDA6A58
:1014D000DF50246E020E212624507CEC0FF079D0D0
:1014E0000D2A0D041C6E1CC0F6FF0F0EF76E0800CF
:1014F000F5CF24F02450000AD8B41200630AD8B4FF
:10150000E4D7070AD8B407D00D0AD8B404D01A0A11
:10151000D8B49FD7E1D72150D96EDA6ADECF22F056
:10152000DDCF23F0020E212623AE06D0030E1D12BE
:10153000226C231ED8B0232A010E246E2450020DE3
:10154000F350010F1C6E1CC0F6FF0F0EF76E090062
:10155000F550225C0900F5502358D8A005D0242A64
:10156000050E2418D8A4EAD71DC01CF0030E1C16C3
:10157000D8B403D02D0E7CEC0FF024C01EF025D083
:101580001E50020DF350010F1C6E1CC0F6FF0F0E13
:10159000F76E0900F5CF03F00A00F5CF04F022C082
:1015A00001F023C002F010EC0EF001C008F002C000
:1015B00009F0000E0B6E0A0E0A6EA4EC0EF0085035
:1015C000300F246E24507CEC0FF01E061E28D8A489
:1015D000D7D70D2A0D041C6E1CC0F6FF0F0EF76E38
:1015E0000800F5CF24F02450D8B4120027D70BC040
:1015F0000FF0106A116A0A340F3601E310800F50A1
:10160000126E1250D8A407D0000E096E000E0A6E9A
:10161000000E0B6E12000EC00FF0106A116A0D342E
:101620000F3601E310800F50176E1750D8A407D063
:10163000000E096E000E0A6E000E0B6E120017509F
:101640007B0F12260BC017F00E50171A800E1716BC
:101650000A8E0D8EFF0E0C16FF0E0D16000E0E16C6
:10166000000E136E000E146E000E156E070E166E31
:1016700009A006D00C5013260D5014220E5015222E
:10168000D8900B320A320932D8900C360D360E360D
:10169000162EEED7090E166E09A006D00C50132692
:1016A0000D5014220E501522D8900B320A320932F6
:1016B000D890153214321332162EEED713C001F023
:1016C00014C002F015C003F012C004F017C005F0FA
:1016D000AEEC0CF001C009F002C00AF003C00BF040
:1016E00012001AC01EF01F6A206A19341E3601E368
:1016F0001F801E50256E2550D8A407D0000E186EEE
:10170000000E196E000E1A6E12001DC01EF01F6A28
:10171000206A1C341E3601E31F801E50266E2650A0
:10172000D8A407D0000E186E000E196E000E1A6EA7
:101730001200000E226E000E236E000E246E265044
:10174000890F255E1AC026F01D50261A800E261617
:10175000198EFF0E1816FF0E1916000E1A161C8E83
:10176000FF0E1B16FF0E1C16000E1D16180E216E06
:10177000D8902236233624361B50185C1C5019583A
:101780001D501A58D8A007D01B50185E1C50195A6B
:101790001D501A5A2280D890183619361A36212E22
:1017A000E7D722C001F023C002F024C003F025C017
:1017B00004F026C005F0AEEC0CF001C018F002C039
:1017C00019F003C01AF0120003C005F0066A076A98
:1017D0000234053601E3068005500F6E0F50D8A481
:1017E00009D0000E016E000E026E000E036E000E98
:1017F000046E1200170E056E01C006F002C007F05D
:1018000003C008F00528096E04D0D89008320732CA
:101810000632092EFAD706500A6E028EFF0E011606
:10182000FF0E0216000E031601500B6E02500C6ED6
:1018300003500D6E0E6A8E0E0F5E0FAE0DD00F5060
:10184000800A8F0FD8A0CDD7D8900E320D320C322F
:101850000B320F3EF9D70DD0170E0F6407D0C1D74A
:10186000D8900B360C360D360E360F060F50D8A416
:10187000F7D70A50D8B408D00E1E0D1E0C1E0B6CE4
:10188000000E0C220D220E220BC001F00CC002F043
:101890000DC003F00EC004F01200000E066E000E24
:1018A000076E000E086E3AD00650030DF350400F3D
:1018B0000724D96EDA6ADF50036E08500708046EF9
:1018C000010E056E042A02D0D8900536042EFCD7EE
:1018D000055003140009D8B402D08B8C2ED08B9CF9
:1018E0002CD00650030DF350600F0724D96EDA6A2E
:1018F000DF50036E08500708046E010E056E042ABF
:1019000002D0D8900536042EFCD7055003140009E8
:10191000D8B402D08B8E11D08B9E0FD001C003F0B3
:1019200002C004F00450000AD8A407D00350010AF2
:10193000D8B4BAD7030AD8B4D4D7082A070E086493
:10194000EDD7072A020E0764ACD7062A070E0664F5
:10195000A6D71A0EE82EFED700D012000450D8B435
:1019600005D0015002100310D8A40CD0000E016E57
:10197000000E026E000E036E1200042AD89003328D
:1019800002320132000E0114066E000E0214076EC0
:10199000FE0E0314086E065007100810D8B40CD0C1
:1019A000ECD7042A010E0126000E0222000E0322AB
:1019B000D890033202320132000E0114066E000E7E
:1019C0000214076EFF0E0314086E0650071008106D
:1019D000D8B406D0E6D70406D890013602360336CE
:1019E00002BE03D0020E0460F6D704A0029ED89077
:1019F0000432045003120550D8A4038E01C001F034
:101A000002C002F003C003F01200020E38183910B1
:101A1000D8A419D005505824016E06505920026EE2
:101A2000000E046E020E036E39EC0EF005505A24BF
:101A3000016E06505B20026E000E046E020E036EF5
:101A400039EC0EF0120038503910D8A40DD00550E2
:101A50005824016E06505920026E000E046E000ECE
:101A6000036E39EC0EF0120005505824016E06503A
:101A70005920026E000E046E010E036E39EC0EF05A
:101A80001200066E04040510D8A419D00650030DE8
:101A9000F350400FD96EDA6A01C0DFFF0650030D24
:101AA000F350410FD96EDA6A02C0DFFF0650030D12
:101AB000F350420FD96EDA6A03C0DFFF12000650FE
:101AC000030DF350600FD96EDA6A01C0DFFF0650D4
:101AD000030DF350610FD96EDA6A02C0DFFF0650C2
:101AE000030DF350620FD96EDA6A03C0DFFF1200F4
:101AF00027D00150D96EDA6ADF50D8B40ED0015029
:101B0000D96EDA6ADF50056E02C0F6FF0F0EF76E6F
:101B10000800F5500518D8B411D00150D96EDA6A12
:101B2000DF50056E02C0F6FF0F0EF76E0800F5508D
:101B3000055C016E026AD8A002061200012A022A80
:101B40000306D8A004060328D4E10428D8A4D1D7DA
:101B5000000E026E000E016E120010D00150400FF8
:101B6000D96EDA6A0350DF261BD00150400FD96EC0
:101B7000DA6A0350DF260150600FF2D738C005F053
:101B800039C006F00650000AD8A40AD00550000A51
:101B9000D8B4E4D7010AD8B4EED7030AD8B4E5D74D
:101BA0000150400FD96EDA6A0150400FD96EDA6ADF
:101BB0000150600FD96EDA6A0150600FD96EDA6A8F
:101BC0001200000E026E000E016E000E046E210E59
:101BD000036E39EC0EF0000E026E010E016E000E67
:101BE000046E210E036E39EC0EF0FF0E016EFF0E37
:101BF000026EFF0E036E000E056E010E046E000EE7
:101C000041EC0DF0FF0E016EFF0E026EFF0E036E33
:101C1000000E056E020E046E000E41EC0DF0120077
:101C2000000E066E000E056E03500410D8B41CD0D2
:101C3000010E076E04D0D89003360436072A04AE8E
:101C4000FAD7D890053606360350015C0450025886
:101C5000D8A005D00350015E0450025A0580D890E8
:101C600004320332072EEDD705C001F006C002F0A2
:101C700012000150020DF350580FD96EDA6A03506A
:101C8000DE260450DD22020E38183910D8A411D0F7
:101C9000035058260450592203505A2604505B2200
:101CA0005A50020DF3CF48FF5850020DF3CF51FFA9
:101CB000120001500210D8B4F7D75A50020DF3CFDA
:101CC00048FF1200E60EF66E1E0EF76E000EF86E5E
:101CD00000EE78F010EE12F00900F5CFEEFFE550BF
:101CE000E150FAE100EE60F0180EEE6AE806FDE160
:101CF00000EE35F0270EEE6AE806FDE1000EF86E04
:101D00000001F9EF08F002D0012A022A02C0F6FF12
:101D10000F0EF76E0800F5CF03F00150D96EDA6AA6
:101D2000DF50046E0350045C056E0550D8A406D045
:101D30000150D96EDA6ADF50D8A4E6D70550016E9B
:101D4000026A01BE020612000A500B10D8B418D065
:101D5000010E0C6E04D0D8900A360B360C2A0BAE4E
:101D6000FAD70A50085C0B500958D8A004D00A5082
:101D7000085E0B50095AD8900B320A320C2EF1D75C
:101D800008C008F009C009F01200066E000E086EC7
:101D90000550D8B415D0010E076E03D0D890053683
:101DA000072A05AEFBD7D89008360550065CD8A0A8
:101DB00003D00550065E0880D8900532072EF3D771
:101DC00008501200000E0C6E0AAE06D0096C0A1EF6
:101DD000D8B00A2A010E0C6E09C001F00AC002F048
:101DE000036A8E0E046E0CC005F0AEEC0CF001C060
:101DF00009F002C00AF003C00BF01200939A949409
:101E0000949C949E0F015051F00B0C09506F4D5152
:101E1000F00B0C094D6F4A51F00B0C094A6F4751FA
:101E2000F00B0C09476FCB68CA84030ECA1212006C
:101E3000026E080E036E000E046ED8900234043455
:101E4000046ED89002360150045CD8A002D0015034
:101E5000045E032EF2D704501200D3508F0B60099A
:101E6000D36ED350FC0B0209D36E938E939CBA9C15
:101E7000BA8ABA98BA94B996A68EA6880C0E7B6ECA
:101E8000120004C009F006D00950D96EDA6A05C004
:101E9000DFFF092A0706D8A008060728F5E1082869
:101EA000D8B41200F1D701C003F001D0032A0350C7
:101EB000D96EDA6ADF50D8A4F9D70150035C016EFD
:101EC000026A01BE020612004E694B69000E026EE4
:101ED000010E016E4DEC0CF0000E026E020E016E52
:101EE0004DEC0CF0120054656D703A207878782033
:101EF000677261646F730D00016EA4A8FED7BAA269
:101F0000FED701C079FF1200A4AAFED77A501200B2
:020000040020DA
:08000000FFFFFFFFFFFFFFFF00
:020000040030CA
:0E0000001D887F3FFF0991FF0FC00FE00F40EA
:00000001FF
