:0400000007EF00F016
:0A0008005E828FED0EF0C0EF11F0E4
:100800000001000800400000020010008001000A02
:10081000006400E803102701001000000100103000
:100820003132333435363738394142434445460056
:100830003031323334353637383961626364656656
:100840000025647C25737C25647C2300286E756CF0
:100850006C29000D25737C2563004653450030301C
:10086000003230004230003231004231003232007A
:0D0870004232004141004646006F6E00001C
:10087E000E0E246EBDD3250E2A18D8B404D02A50DD
:10088E00E3EC12F0B5D3000E296E000E286E000EAA
:10089E002C6E000E2B6E08D02B8605D02B8003D02D
:1008AE002C8601D02B840D2A0DC0F6FF080EF76E94
:1008BE000800F550200AD8B4F1D7030AD8B4F0D7FF
:1008CE000E0AD8B4E9D71D0AD8B4ECD72BB62B94A0
:1008DE000DC0F6FF080EF76E0800F55072EC12F020
:1008EE00D8A032D0000E296E000E286E28C001F05E
:1008FE0029C002F0000E046E0A0E036E3CEC12F0DC
:10090E0001C028F002C029F0D00E166EFF0E176E31
:10091E000DC0F6FF080EF76E0800F550186E196A36
:10092E001650182617501922185028261950292209
:10093E000D2A0DC0F6FF080EF76E0800F55072EC8A
:10094E0012F0D8A014D0D2D70DC0F6FF080EF76E55
:10095E000800F5502A0AD8A40AD02450D96EDA6AB3
:10096E00DECF28F0DDCF29F0020E24260D2A0DC091
:10097E00F6FF080EF76E0800F5502E0AD8A434D0F4
:10098E002C8C0D2A0DC0F6FF080EF76E0800F550E0
:10099E002A0AD8A40ED02450D96EDA6ADF50276EF8
:1009AE00020E242627AE03D0000E276E2C9C0D2A95
:1009BE00C2D0000E276E0DD00A0E2702F350276EFE
:1009CE000DC0F6FF080EF76E0800F550D00F272663
:1009DE000D2A0DC0F6FF080EF76E0800F55072ECEA
:1009EE0012F0D8A0A8D0E8D7000E276EA4D02B8C7A
:1009FE00C9D02B8A2B8EC6D02450D96EDA6ADECFA0
:100A0E0020F0DDCF21F0020E242620502110D8A494
:100A1E0006D04C0E206E2050D8A4080E216E000E6B
:100A2E00236E000E226E02D0224A232A2250202448
:100A3E00166E23502120176E16C0F6FF17C0F7FF53
:100A4E00F86A070EF76403D00800F55005D0F6CF0C
:100A5E00D9FFF7CFDAFFDF500009D8A4E5D727502A
:100A6E00D8B40ED0800E27BE7F0E166E2250275C95
:100A7E002350800A1658D8B003D027C022F0236A1C
:100A8E002850225C29502358D8B005D02250285E19
:100A9E002350295A04D0000E296E000E286E2BA664
:100AAE0004D020D0200EE3EC12F02806D8A02906A0
:100ABE002828F8E12928D8B415D0F4D720C0F6FF9D
:100ACE0021C0F7FFF86A070EF76403D00800F5504F
:100ADE0005D0F6CFD9FFF7CFDAFFDF50E3EC12F0F7
:100AEE00204A212A2206D8A023062228E7E123281D
:100AFE00D8A4E4D72BB604D07BD2200EE3EC12F0B0
:100B0E002806D8A029062828F8E12928D8B470D2BA
:100B1E00F4D72450D96EDA6ADF502A6E020E2426DC
:100B2E002A0E206E216A000E236E010E226E97D7BA
:100B3E00C00E2B1227D00D2A0D04166E16C0F6FF0E
:100B4E00080EF76E0800F5CF2AF02A50000AD8B426
:100B5E001200580AD8B44DD73B0AD8B4DAD7070AD0
:100B6E00D8B410D00D0AD8B40DD0060AD8B43FD7D9
:100B7E001C0AD8B441D7060AD8B4DAD70D0AD8B4AD
:100B8E0039D7CED72BC016F0C00E1616D8A412D059
:100B9E002450D96EDA6ADECF25F0DDCF26F0020EB4
:100BAE00242626AE10D0030E2B12256C261ED8B08E
:100BBE00262A09D02450D96EDA6ADECF25F0DDCF91
:100BCE0026F0020E24262750D8A451D025502610E8
:100BDE00D8A44DD0272A4BD0010E2A6E050E2A1806
:100BEE00D8B453D02A50020DF3500D0F166E16C006
:100BFE00F6FF080EF76E0900F550255C0900F5505A
:100C0E002658D8A042D02A2AE9D7010E2A6E040E01
:100C1E002A18D8B43AD02A50020DF350170F166E78
:100C2E0016C0F6FF080EF76E0900F550255C090098
:100C3E00F5502658D8A029D02A2AE9D7010E2A6EB7
:100C4E00060E2A18D8B421D02A50020DF350010FE7
:100C5E00166E16C0F6FF080EF76E0900F550255CED
:100C6E000900F5502658D8A010D02A2AE9D72B50C3
:100C7E00C00B000AD8B4B0D7400AD8B4DFD7C00A28
:100C8E00D8B4C3D7400AD8B4A7D72A50D880D884AE
:100C9E0027AE275CD8A0D884D8B403D027C02AF0BA
:100CAE0009D02A50D89027AE275CD8B0D880D8A0CB
:100CBE002AC027F028502910D8B409D02BC016F01E
:100CCE00030E1616D8B403D02806D8A029062CACCD
:100CDE0016D0800E27BE7F0E166E2850275C295028
:100CEE00800A1658D8B007D02750285E000E27BEAF
:100CFE00FF0E295A04D0000E296E000E286EC40E67
:100D0E00166E080E176E2BC018F02CC019F0165068
:100D1E00181617501916400E18180CE1080E19184F
:100D2E00D8A408D028502910D8B428D02806D8A086
:100D3E00290624D0C00E166E080E176E2BC018F0A2
:100D4E002CC019F01650181617501916800E1818B8
:100D5E0015E1080E1918D8A411D029BE0BD02950B0
:100D6E0004E1030E285CD8A005D0FE0E2826FF0E47
:100D7E00292204D0000E296E000E286E2A50166EFF
:100D8E00176A2850165C1750800A186E2950800A70
:100D9E001858D8B005D02A50285E000E295A04D013
:100DAE00000E296E000E286E2BA43ED02BC016F01E
:100DBE00030E1616D8B404D02D0EE3EC12F029D083
:100DCE002BA004D0200EE3EC12F023D0C00E166E32
:100DDE00080E176E2BC018F02CC019F016501816EE
:100DEE0017501916800E181814E1080E1918D8A4E9
:100DFE0010D0300EE3EC12F02BBA04D0000E1B6EA6
:100E0E00780E03D0000E1B6E580E1A6E1A50E3ECBD
:100E1E0012F028502910D8B4D5D0300EE3EC12F0D1
:100E2E002806D8A02906F5D728502910D8A42BB605
:100E3E000AD0200EE3EC12F02806D8A0290628507E
:100E4E002910D8A4F6D72BC016F0030E1616D8B458
:100E5E0004D02D0EE3EC12F005D02BA003D0200E03
:100E6E00E3EC12F0C00E166E080E176E2BC018F0C3
:100E7E002CC019F01650181617501916400E1818C7
:100E8E0008E1080E1918D8A404D0300EE3EC12F0C5
:100E9E0099D0C00E166E080E176E2BC018F02CC00F
:100EAE0019F01650181617501916800E181814E14E
:100EBE00080E1918D8A486D0300EE3EC12F02BBA17
:100ECE0004D0000E1D6E780E03D0000E1D6E580E4F
:100EDE001C6E1C50E3EC12F075D02750020DF3502F
:100EEE000D0F166E16C0F6FF080EF76E0900F5CF41
:100EFE0003F00A00F5CF04F025C001F026C002F081
:100F0E0032EC11F001C008F002C009F0000E0B6EB9
:100F1E000A0E0A6E9FEC11F0085040D025C001F069
:100F2E0026C002F02750020DF350170F166E16C092
:100F3E00F6FF080EF76E0900F5CF03F00A00F5CFA5
:100F4E0004F032EC11F001500F0B1E6E2BBA02D0D2
:100F5E00300E01D01F0E1F6E1F501E24166E16C0AF
:100F6E00F6FF080EF76E0800F5CF2AF028D025C040
:100F7E0001F026C002F02750020DF350010F166E3D
:100F8E0016C0F6FF080EF76E0900F5CF03F00A0043
:100F9E00F5CF04F032EC11F00150070B300F2A6E32
:100FAE000ED02B50C00B000AD8B497D7400AD8B435
:100FBE00DED7C00AD8B4B2D7400AD8B48ED72A50DA
:100FCE00E3EC12F027062728D8A4EBD72BB629BEC0
:100FDE000FD0295003E12804D8A00AD0200EE3EC4C
:100FEE0012F02806D8A0290628502910D8A4F6D722
:100FFE000D2A0D04166E16C0F6FF080EF76E0800C9
:10100E00F5CF2AF02A50D8B4120035D4000E0001C4
:10101E00786F000E776F000E7A6F7969000E7C6F15
:10102E00000E7B6F000E7E6F000E7D6F000E806FC8
:10103E007F69E0D2FF0E6D6F000E6E6FFF0E6F6F49
:10104E00010EF6EC11F0040E0001746F0C0E736FAE
:10105E00330EE82EFED7732FFCD7742FFAD700D09D
:10106E00000E00016D6F000E6E6FFF0E6F6F020EA1
:10107E00F6EC11F0040E0001746F0C0E736F330E4C
:10108E00E82EFED7732FFCD7742FFAD700D0FF0EA1
:10109E0000016D6F000E6E6FFF0E6F6F030EF6EC9C
:1010AE0011F0040E0001746F0C0E736F330EE82EE8
:1010BE00FED7732FFCD7742FFAD700D0000E000185
:1010CE006D6F000E6E6FFF0E6F6F040EF6EC11F06B
:1010DE00040E0001746F0C0E736F330EE82EFED7E4
:1010EE00732FFCD7742FFAD700D0000E00016D6F4E
:1010FE00000E6E6FFF0E6F6F010EF6EC11F0040E08
:10110E000001746F0C0E736F330EE82EFED7732F23
:10111E00FCD7742FFAD700D0FF0E00016D6F000EB2
:10112E006E6FFF0E6F6F020EF6EC11F0040E0001E3
:10113E00746F0C0E736F330EE82EFED7732FFCD721
:10114E00742FFAD700D0000E00016D6F000E6E6F77
:10115E00FF0E6F6F030EF6EC11F0040E0001746FAC
:10116E000C0E736F330EE82EFED7732FFCD7742F31
:10117E00FAD700D0FF0E00016D6F000E6E6FFF0EDE
:10118E006F6F040EF6EC11F0040E0001746F0C0E6E
:10119E00736F330EE82EFED7732FFCD7742FFAD74A
:1011AE0000D01200FF0E6D6F000E6E6FFF0E6F6F90
:1011BE00010EDCEC11F0040E0001746F0C0E736F57
:1011CE00330EE82EFED7732FFCD7742FFAD700D02C
:1011DE00000E00016D6F000E6E6FFF0E6F6F020E30
:1011EE00DCEC11F0040E0001746F0C0E736F330EF5
:1011FE00E82EFED7732FFCD7742FFAD700D0FF0E30
:10120E0000016D6F000E6E6FFF0E6F6F030EDCEC44
:10121E0011F0040E0001746F0C0E736F330EE82E76
:10122E00FED7732FFCD7742FFAD700D0000E000113
:10123E006D6F000E6E6FFF0E6F6F040EDCEC11F013
:10124E00040E0001746F0C0E736F330EE82EFED772
:10125E00732FFCD7742FFAD700D0000E00016D6FDC
:10126E00000E6E6FFF0E6F6F010EDCEC11F0040EB0
:10127E000001746F0C0E736F330EE82EFED7732FB2
:10128E00FCD7742FFAD700D0FF0E00016D6F000E41
:10129E006E6FFF0E6F6F020EDCEC11F0040E00018C
:1012AE00746F0C0E736F330EE82EFED7732FFCD7B0
:1012BE00742FFAD700D0000E00016D6F000E6E6F06
:1012CE00FF0E6F6F030EDCEC11F0040E0001746F55
:1012DE000C0E736F330EE82EFED7732FFCD7742FC0
:1012EE00FAD700D0FF0E00016D6F000E6E6FFF0E6D
:1012FE006F6F040EDCEC11F0040E0001746F0C0E17
:10130E00736F330EE82EFED7732FFCD7742FFAD7D8
:10131E0000D01200FF0E6D6F000E6E6FFF0E6F6F1E
:10132E00010EF6EC11F0040E0001746F0C0E736FCB
:10133E00330EE82EFED7732FFCD7742FFAD700D0BA
:10134E00000E00016D6F000E6E6FFF0E6F6F020EBE
:10135E00F6EC11F0040E0001746F0C0E736F330E69
:10136E00E82EFED7732FFCD7742FFAD700D0FF0EBE
:10137E0000016D6F000E6E6FFF0E6F6F030EF6ECB9
:10138E0011F0040E0001746F0C0E736F330EE82E05
:10139E00FED7732FFCD7742FFAD700D0000E0001A2
:1013AE006D6F000E6E6FFF0E6F6F040EF6EC11F088
:1013BE00040E0001746F0C0E736F330EE82EFED701
:1013CE00732FFCD7742FFAD700D0000E00016D6F6B
:1013DE00000E6E6FFF0E6F6F010EF6EC11F0040E25
:1013EE000001746F0C0E736F330EE82EFED7732F41
:1013FE00FCD7742FFAD700D0FF0E00016D6F000ED0
:10140E006E6FFF0E6F6F020EF6EC11F0040E000100
:10141E00746F0C0E736F330EE82EFED7732FFCD73E
:10142E00742FFAD700D0000E00016D6F000E6E6F94
:10143E00FF0E6F6F030EF6EC11F0040E0001746FC9
:10144E000C0E736F330EE82EFED7732FFCD7742F4E
:10145E00FAD700D0FF0E00016D6F000E6E6FFF0EFB
:10146E006F6F040EF6EC11F0040E0001746F0C0E8B
:10147E00736F330EE82EFED7732FFCD7742FFAD767
:10148E0000D0FF0E00016D6F000E6E6FFF0E6F6FBE
:10149E00010EDCEC11F0040E0001746F0C0E736F74
:1014AE00330EE82EFED7732FFCD7742FFAD700D049
:1014BE00000E00016D6F000E6E6FFF0E6F6F020E4D
:1014CE00DCEC11F0040E0001746F0C0E736F330E12
:1014DE00E82EFED7732FFCD7742FFAD700D0FF0E4D
:1014EE0000016D6F000E6E6FFF0E6F6F030EDCEC62
:1014FE0011F0040E0001746F0C0E736F330EE82E94
:10150E00FED7732FFCD7742FFAD700D0000E000130
:10151E006D6F000E6E6FFF0E6F6F040EDCEC11F030
:10152E00040E0001746F0C0E736F330EE82EFED78F
:10153E00732FFCD7742FFAD700D0000E00016D6FF9
:10154E00000E6E6FFF0E6F6F010EDCEC11F0040ECD
:10155E000001746F0C0E736F330EE82EFED7732FCF
:10156E00FCD7742FFAD700D0FF0E00016D6F000E5E
:10157E006E6FFF0E6F6F020EDCEC11F0040E0001A9
:10158E00746F0C0E736F330EE82EFED7732FFCD7CD
:10159E00742FFAD700D0000E00016D6F000E6E6F23
:1015AE00FF0E6F6F030EDCEC11F0040E0001746F72
:1015BE000C0E736F330EE82EFED7732FFCD7742FDD
:1015CE00FAD700D0FF0E00016D6F000E6E6FFF0E8A
:1015DE006F6F040EDCEC11F0040E0001746F0C0E34
:1015EE00736F330EE82EFED7732FFCD7742FFAD7F6
:1015FE0000D0120071C073F072C074F07451000A02
:10160E00D8A412007351000AD8B414D5010AD8B464
:10161E00C9D5030AD8A412007DD62D50D96EDA6A28
:10162E00020ED926DF502E6E2D50D96EDA6A030EB9
:10163E00D926DF502F6E2D50D96EDA6A040ED926B8
:10164E00DF50306E000E316E2D50D96EDA6A020EFA
:10165E00D926DF50326E000E336E2DC001F0730EA0
:10166E00026E000E046E020E036EFDEC10F00150C1
:10167E000210D8A42DD0410E0D6E000E0F6E000E6E
:10168E000E6E790E106E1050D8A4080E116E57C043
:10169E0012F058C013F0000E156E0D0E146E3FECC6
:1016AE0004F0410E0D6E000E0F6E010E0E6E790ED1
:1016BE00106E1050D8A4080E116E59C012F05AC0F8
:1016CE0013F0000E156E0D0E146E3FEC04F01200AA
:1016DE002DC001F05E0E026E000E046E020E036E41
:1016EE00FDEC10F001500210D8A403D07EEC11F0E6
:1016FE0012002DC001F0670E026E000E046E020E77
:10170E00036EFDEC10F001500210D8A40FD0000EA5
:10171E000F6E010E0E6E2E0E076EFFEC0FF007C051
:10172E0010F008C011F05BEC11F012002DC001F0AA
:10173E00610E026E000E046E020E036EFDEC10F0D2
:10174E0001500210D8A40FD0000E0F6E000E0E6EB8
:10175E002E0E076EFFEC0FF007C010F008C011F050
:10176E005BEC11F012002DC001F06D0E026E000E3A
:10177E00046E020E036EFDEC10F001500210D8A4A0
:10178E001DD0000E0F6E000E0E6E2E0E076EFFECAD
:10179E000FF007C010F008C011F05BEC11F0000E56
:1017AE000F6E010E0E6E2E0E076EFFEC0FF007C0C1
:1017BE0010F008C011F05BEC11F012002DC001F01A
:1017CE00700E026E000E046E020E036EFDEC10F033
:1017DE0001500210D8A41BD0000E026E020E016E34
:1017EE00ABEC12F0320E076EFFEC0FF007C00EF0EE
:1017FE0008C00FF010EC12F0530E0D6E2DC00EF04F
:10180E000F6A320E106E116A3FEC04F012002DC0FA
:10181E0001F06A0E026E000E046E020E036EFDECF7
:10182E0010F001500210D8A41BD0000E026E010E53
:10183E00016EABEC12F0320E076EFFEC0FF007C02C
:10184E000EF008C00FF010EC12F0530E0D6E2DC0FE
:10185E000EF00F6A320E106E116A3FEC04F0120099
:10186E002DC001F0640E026E000E046E020E036EA9
:10187E00FDEC10F001500210D8A41BD0000E026E29
:10188E00000E016EABEC12F0320E076EFFEC0FF095
:10189E0007C00EF008C00FF010EC12F0530E0D6ED4
:1018AE002DC00EF00F6A320E106E116A3FEC04F06E
:1018BE0012002DC001F0760E026E000E046E020EA6
:1018CE00036EFDEC10F001500210D8A412005A0E57
:1018DE000D6E3FEC04F01200000E00017E6F7D696C
:1018EE00000E806F7F69000E826F816926D1010E16
:1018FE00756F7DC06DF07FC06EF081C06FF0752981
:10190E00F6EC11F0070E0001746F170E736F6A0E6E
:10191E00E82EFED7732FFCD7742FFAD700F00001F4
:10192E00752B040E7565E5D7050E766F010E6B6F80
:10193E00040E9DEC12F0000E00016B6F76059DEC0F
:10194E0012F07FC061F081C062F0010E0001636F82
:10195E00010E646F7D5186EC0FF0070E0001746F5F
:10196E00170E736F6A0EE82EFED7732FFCD7742FE7
:10197E00FAD700F0000176077651D8B41200D6D708
:10198E00010E776F7DC06DF07FC06EF081C06FF07D
:10199E007729DCEC11F0070E0001746F170E736FD0
:1019AE006A0EE82EFED7732FFCD7742FFAD700F0ED
:1019BE000001772B040E7765E5D7050E786F010EC3
:1019CE006B6F040E8FEC12F0000E00016B6F78053A
:1019DE008FEC12F07FC061F081C062F0010E000149
:1019EE00636F010E646F7D510DEC0FF0070E000159
:1019FE00746F170E736F6A0EE82EFED7732FFCD717
:101A0E00742FFAD700F0000178077851D8B412007D
:101A1E00D6D7000E796F7DC06DF07FC06EF081C09D
:101A2E006FF07929F6EC11F0070E0001746F170EA6
:101A3E00736F6A0EE82EFED7732FFCD7742FFAD76A
:101A4E0000F00001792B030E7965E5D7030E7A6F4E
:101A5E0026D0010E6B6F040E9DEC12F0000E0001ED
:101A6E006B6F7A059DEC12F07FC061F081C062F061
:101A7E00010E0001636F010E646F7D5186EC0FF055
:101A8E00070E0001746F170E736F6A0EE82EFED7E5
:101A9E00732FFCD7742FFAD700F000017A077A5112
:101AAE00D8A4D7D7000E7B6F030E7B6501D019D05B
:101ABE007DC06DF07FC06EF081C06FF07B29DCECD5
:101ACE0011F0070E0001746F170E736F6A0EE82E79
:101ADE00FED7732FFCD7742FFAD700F000017B2BA3
:101AEE00E3D7030E7C6F7C51D8B41200010E6B6FDE
:101AFE00040E8FEC12F0000E00016B6F7C058FEC64
:101B0E0012F07FC061F081C062F0010E0001636FC0
:101B1E00010E646F7D510DEC0FF0070E0001746F16
:101B2E00170E736F6A0EE82EFED7732FFCD7742F25
:101B3E00FAD700F000017C07D6D771C073F072C0DF
:101B4E0074F07451000AD8A412007351000AD8B46C
:101B5E00CED6010AD8B414D7030AD8A4120059D786
:101B6E00C3D0000E706F6F696FC077F070C078F0E1
:101B7E00000E616F000E626F040E636F010E646FD4
:101B8E00775186EC0FF077C061F077C062F0030EEC
:101B9E000001636F010E646F775186EC0FF077C012
:101BAE0061F0000E0001626F010E636F010E646F33
:101BBE00000E86EC0FF000016F07D8A0700778BFFB
:101BCE001200D2D7000E726F716971C077F072C0B9
:101BDE0078F0000E616F000E626F040E636F010EDF
:101BEE00646F77510DEC0FF077C061F077C062F043
:101BFE00030E0001636F010E646F77510DEC0FF051
:101C0E0077C061F0000E0001626F010E636F010E6E
:101C1E00646F000E0DEC0FF000017107D8A0720773
:101C2E0078BF1200D2D7000E746F736973C077F04D
:101C3E0074C078F0000E616F000E626F040E636F59
:101C4E00010E646F775186EC0FF077C061F077C0AC
:101C5E0062F0030E0001636F010E646F775186EC24
:101C6E000FF077C061F0000E0001626F010E636F1E
:101C7E00010E646F000E86EC0FF000017307D8A002
:101C8E00740778AFD3D7000E766F756975C077F08D
:101C9E0076C078F0000E616F000E626F040E636FF7
:101CAE00010E646F77510DEC0FF077C061F077C0C5
:101CBE0062F0030E0001636F010E646F77510DEC3D
:101CCE000FF077C061F0000E0001626F010E636FBE
:101CDE00010E646F000E0DEC0FF000017507D8A019
:101CEE00760778BF1200D2D76BC06DF06CC06EF065
:101CFE0000016E51000AD8A412006D51000AD8B42A
:101D0E0030D7010AD8B45ED7030AD8A412008BD7F5
:101D1E000600D9CF34F0DACF35F0F3CF36F0F4CF6A
:101D2E0037F0F6CF38F0F7CF39F0F8CF3AF0F5CFED
:101D3E003BF09EAA59D0ABA203D0AB9800F0AB8873
:101D4E00AECF44F04CD0470E2D6E14EC0BF0470E78
:101D5E00046E000E066E000E056E470E016E61ECEF
:101D6E0012F001C007F002C008F04FEC12F0000EA6
:101D7E00416E000E406E0D0EE3EC12F035D041BEFA
:101D8E0006D0415010E1100E405CD8B00CD044503B
:101D9E00E3EC12F04050470FD96EDA6A44C0DFFF11
:101DAE00404A412A21D00D0EE3EC12F0470E2D6E63
:101DBE0014EC0BF0470E046E000E066E000E056E50
:101DCE00470E016E61EC12F001C007F002C008F080
:101DDE004FEC12F0000E416E000E406E05D04450D6
:101DEE000D0AD8B4B0D7CBD73BC0F5FF3AC0F8FF39
:101DFE0039C0F7FF38C0F6FF37C0F4FF36C0F3FF27
:101E0E0035C0DAFF34C0D9FF5E921100656F000E47
:101E1E000001666F6AD061C06AF0000E676F6ABF1C
:101E2E000BD0818200D000D000D000D08192060E5F
:101E3E00E82EFED700F00AD08182050EE82EFED7DE
:101E4E0000F08192040EE82EFED700D000016A51F8
:101E5E006A256A6F672B070E6765E1D765C06AF062
:101E6E00000E686F6ABF0BD0818200D000D000D008
:101E7E0000D08192060EE82EFED700F00AD08182A5
:101E8E00050EE82EFED700F08192040EE82EFED746
:101E9E0000D000016A516A256A6F682B070E6865CB
:101EAE00E1D762C06AF0000E696F6ABF0BD0818203
:101EBE0000D000D000D000D08192060EE82EFED7C2
:101ECE0000F00AD08182050EE82EFED700F0819236
:101EDE00040EE82EFED700D000016A516A256A6F03
:101EEE00692B070E6965E1D7662B6351665DD8A035
:101EFE0092D76405D8A41200C4EC12F01200656FDC
:101F0E00000E0001666F6AD061C06AF0000E676F46
:101F1E006ABF0BD0818000D000D000D000D081905D
:101F2E00060EE82EFED700F00AD08180050EE82EB0
:101F3E00FED700F08190040EE82EFED700D00001EF
:101F4E006A516A256A6F672B070E6765E1D765C010
:101F5E006AF0000E686F6ABF0BD0818000D000D08F
:101F6E0000D000D08190060EE82EFED700F00AD0E9
:101F7E008180050EE82EFED700F08190040EE82E2B
:101F8E00FED700D000016A516A256A6F682B070ED2
:101F9E006865E1D762C06AF0000E696F6ABF0BD048
:101FAE00818000D000D000D000D08190060EE82EA7
:101FBE00FED700F00AD08180050EE82EFED700F085
:101FCE008190040EE82EFED700D000016A516A25DA
:101FDE006A6F692B070E6965E1D7662B6351665DE3
:101FEE00D8A092D76405D8A41200CFEC12F012003C
:101FFE0001D0072A0750D96EDA6A200EDE18D8B43F
:10200E00F8D70750D96EDA6A090EDE18D8B4F1D7B0
:10201E00000E0D6E000E0C6E000E0B6E0750D96E7C
:10202E00DA6A2D0EDE18D8A402D00B2A07D007507C
:10203E00D96EDA6A2B0EDE18D8A41CD0072A1AD055
:10204E000CC001F00DC002F0000E046E0A0E036EFD
:10205E003CEC12F00750D96EDA6ADF50096E095067
:10206E000126000E0222D00E01240C6EFF0E02205D
:10207E000D6EE4D70750D96EDA6ADF5072EC12F0AB
:10208E00D8B0DED70B50D8B40DD00CC009F00DC0AF
:10209E000AF0091E0A1E094A0A2A09C007F00AC0D8
:1020AE0008F012000CC007F00DC008F01200000E70
:1020BE000001726F000E716F000E746F000E736F61
:1020CE0030D0000E616F000E626F040E636F010E52
:1020DE00646FFF0E86EC0FF036D0000E616F000EAF
:1020EE00626F040E636F010E646FFF0E0DEC0FF046
:1020FE002AD0000E616F000E626F040E636F010E28
:10210E00646FFF0E86EC0FF0000E0001616F000E83
:10211E00626F040E636F010E646FFF0E0DEC0FF015
:10212E0012D06BC06DF06CC06EF06E51000AD8A468
:10213E000AD06D51000AD8B4C4D7010AD8B4CDD78D
:10214E00030AD8B4D6D7CFEC12F0C4EC12F01200BA
:10215E00000E0001886F000E876F8751020DF3503D
:10216E003C0FD96EDA6ADECF85F0DDCF86F01CD05B
:10217E0087C06BF088C06CF05EEC10F02AD087C080
:10218E0071F088C072F073EC0CF023D087C071F040
:10219E0088C072F00DEC08F01CD087C06BF088C0C0
:1021AE006CF0B7EC0DF015D085C083F086C084F0CE
:1021BE008451000AD8A40DD08351000AD8B4D8D7C0
:1021CE00010AD8B4DCD7030AD8B4E0D7010AD8B4D0
:1021DE00E4D70001874B882B88BFBFD7885105E114
:1021EE00020E875DD8B01200B8D7120027D001506A
:1021FE00D96EDA6ADF50D8B40ED00150D96EDA6AD1
:10220E00DF50056E02C0F6FF080EF76E0800F5509F
:10221E000518D8B411D00150D96EDA6ADF50056EA8
:10222E0002C0F6FF080EF76E0800F550055C016E51
:10223E00026AD8A002061200012A022A0306D8A0BA
:10224E0004060328D4E10428D8A4D1D7000E026EC8
:10225E00000E016E1200000E066E000E056E03508B
:10226E000410D8B41CD0010E076E04D0D8900336DB
:10227E000436072A04AEFAD7D89005360636035030
:10228E00015C04500258D8A005D00350015E0450E2
:10229E00025A0580D89004320332072EEDD705C0BE
:1022AE0001F006C002F0120012D010C057F011C09B
:1022BE0058F05750020DF3CFBEFF120010C059F068
:1022CE0011C05AF05950020DF3CFBBFF12000EC0D1
:1022DE0012F00FC013F01350000AD8A412001250BF
:1022EE00000AD8B4E2D7010AD8A41200E7D7000E2C
:1022FE00026E020E016EABEC12F0000E0F6E000EAF
:10230E000E6E10EC12F0000E0F6E000E0E6E000E22
:10231E00116E210E106E5BEC11F0000E0F6E010EA1
:10232E000E6E000E116E210E106E5BEC11F012008F
:10233E000A500B10D8B418D0010E0C6E04D0D890E1
:10234E000A360B360C2A0BAEFAD70A50085C0B5025
:10235E000958D8A004D00A50085E0B50095AD890DC
:10236E000B320A320C2EF1D708C008F009C009F062
:10237E001200D60EF66E250EF76E000EF86E0900E0
:10238E00F5CF5BF00900F5CF5CF00900F5CF5DF0FD
:10239E0000EE3CF01F0EEE6AE806FDE15E905E92E6
:1023AE00000EF86E000181EF12F0706F010E000149
:1023BE006B6F040E8FEC12F0000E00016B6F700548
:1023CE008FEC12F06EC061F06FC062F0010E000172
:1023DE00636F010E646F6D510DEC0FF01200706F94
:1023EE00010E00016B6F040E9DEC12F0000E000149
:1023FE006B6F70059DEC12F06EC061F06FC062F0F5
:10240E00010E0001636F010E646F6D5186EC0FF0CB
:10241E001200020E5B185C10D8A409D00EC03CF05E
:10242E000FC03DF00EC03EF00FC03FF012005B50EB
:10243E00020DF3503C0FD96EDA6A0EC0DEFF0FC0EC
:10244E00DDFF120094929494BD50F00B0C09BD6EFA
:10245E00BA50F00B0C09BA6ECB68CA84030ECA12BE
:10246E00000EBE6E000EBB6E120001500302F3CFC3
:10247E0005F0F4CF06F001500402F3500626025088
:10248E000302F350062605C001F006C002F012004A
:10249E0004C009F006D00950D96EDA6A05C0DFFF14
:1024AE00092A0706D8A008060728F5E10828D8B497
:1024BE001200F1D701C003F001D0032A0350D96EE8
:1024CE00DA6ADF50D8A4F9D70150035C016E026AB4
:1024DE0001BE02061200036E000E026E3A0E03607B
:1024EE0005D02F0E036402D0010E026E02C001F061
:1024FE000130120029EC12F0F28EF28C9E9A9D8A17
:10250E009F8AB8EC12F0DAEC12F0AFEC10F0FDD7B7
:10251E006C6F000E0001616F000E626F6CC063F095
:10252E006BC064F0000E0DEC0FF012006C6F000E1D
:10253E000001616F000E626F6CC063F06BC064F0DF
:10254E00000E86EC0FF0120002BE06D0025008E11B
:10255E00030E015CD8B0120001C05BF002C05CF04B
:10256E001200949C948EAC9CAC8AAC98AC94B896A9
:10257E00AB8EAB889B0EAF6E12008192200E0001C7
:10258E00606F290EE82EFED7602FFCD700D0120008
:10259E008190200E0001606F290EE82EFED7602F6D
:1025AE00FCD700D012009390819093928192F00EFE
:1025BE0000D0E82EFDD71200016E9EA8FED7ACA269
:0B25CE00FED701C0ADFF12000200FFAD
:020000040030CA
:0E000000040E1F1EFF8181FF0FC00FE00F4096
:00000001FF
