:0400000007EF00F016
:0A0008005E82DEED0FF09CEF11F0B8
:100800000001000800400000020010008001000A02
:10081000006400E803102701001000000100103000
:100820003132333435363738394142434445460056
:100830003031323334353637383961626364656656
:100840000025647C25737C25640D0025647C25735C
:100850007C25647C00286E756C6C290025737C25D2
:10086000630D004653450030300032300042300006
:100870003231004231003232004232004141004602
:1008800046006F6E00000E0E246EBDD3250E2A1892
:10089000D8B404D02A50BEEC12F0B5D3000E296EA5
:1008A000000E286E000E2C6E000E2B6E08D02B86CC
:1008B00005D02B8003D02C8601D02B840D2A0DC0AF
:1008C000F6FF080EF76E0800F550200AD8B4F1D7ED
:1008D000030AD8B4F0D70E0AD8B4E9D71D0AD8B4A1
:1008E000ECD72BB62B940DC0F6FF080EF76E080060
:1008F000F5504EEC12F0D8A032D0000E296E000E4A
:10090000286E28C001F029C002F0000E046E0A0E05
:10091000036E18EC12F001C028F002C029F0D00ECE
:10092000166EFF0E176E0DC0F6FF080EF76E08006C
:10093000F550186E196A16501826175019221850BB
:100940002826195029220D2A0DC0F6FF080EF76E31
:100950000800F5504EEC12F0D8A014D0D2D70DC03C
:10096000F6FF080EF76E0800F5502A0AD8A40AD040
:100970002450D96EDA6ADECF28F0DDCF29F0020EDE
:1009800024260D2A0DC0F6FF080EF76E0800F5505C
:100990002E0AD8A434D02C8C0D2A0DC0F6FF080ED8
:1009A000F76E0800F5502A0AD8A40ED02450D96E4C
:1009B000DA6ADF50276E020E242627AE03D0000E1F
:1009C000276E2C9C0D2AC2D0000E276E0DD00A0E69
:1009D0002702F350276E0DC0F6FF080EF76E0800D1
:1009E000F550D00F27260D2A0DC0F6FF080EF76E22
:1009F0000800F5504EEC12F0D8A0A8D0E8D7000EB1
:100A0000276EA4D02B8CC9D02B8A2B8EC6D0245015
:100A1000D96EDA6ADECF20F0DDCF21F0020E242677
:100A200020502110D8A406D0550E206E2050D8A4F6
:100A3000080E216E000E236E000E226E02D0224A96
:100A4000232A22502024166E23502120176E16C010
:100A5000F6FF17C0F7FFF86A070EF76403D0080027
:100A6000F55005D0F6CFD9FFF7CFDAFFDF500009F8
:100A7000D8A4E5D72750D8B40ED0800E27BE7F0E5D
:100A8000166E2250275C2350800A1658D8B003D027
:100A900027C022F0236A2850225C29502358D8B05E
:100AA00005D02250285E2350295A04D0000E296E0A
:100AB000000E286E2BA604D020D0200EBEEC12F023
:100AC0002806D8A029062828F8E12928D8B415D066
:100AD000F4D720C0F6FF21C0F7FFF86A070EF764CD
:100AE00003D00800F55005D0F6CFD9FFF7CFDAFFD5
:100AF000DF50BEEC12F0204A212A2206D8A023069D
:100B00002228E7E12328D8A4E4D72BB604D07BD24F
:100B1000200EBEEC12F02806D8A029062828F8E1FD
:100B20002928D8B470D2F4D72450D96EDA6ADF50AD
:100B30002A6E020E24262A0E206E216A000E236ED3
:100B4000010E226E97D7C00E2B1227D00D2A0D044E
:100B5000166E16C0F6FF080EF76E0800F5CF2AF0E5
:100B60002A50000AD8B41200580AD8B44DD73B0A0C
:100B7000D8B4DAD7070AD8B410D00D0AD8B40DD03B
:100B8000060AD8B43FD71C0AD8B441D7060AD8B44D
:100B9000DAD70D0AD8B439D7CED72BC016F0C00E8D
:100BA0001616D8A412D02450D96EDA6ADECF25F0FA
:100BB000DDCF26F0020E242626AE10D0030E2B1217
:100BC000256C261ED8B0262A09D02450D96EDA6AA0
:100BD000DECF25F0DDCF26F0020E24262750D8A444
:100BE00051D025502610D8A44DD0272A4BD0010E25
:100BF0002A6E050E2A18D8B453D02A50020DF3508D
:100C00000D0F166E16C0F6FF080EF76E0900F550B0
:100C1000255C0900F5502658D8A042D02A2AE9D7E9
:100C2000010E2A6E040E2A18D8B43AD02A50020DAA
:100C3000F350170F166E16C0F6FF080EF76E090078
:100C4000F550255C0900F5502658D8A029D02A2A4D
:100C5000E9D7010E2A6E060E2A18D8B421D02A50E0
:100C6000020DF350010F166E16C0F6FF080EF76E58
:100C70000900F550255C0900F5502658D8A010D081
:100C80002A2AE9D72B50C00B000AD8B4B0D7400AA3
:100C9000D8B4DFD7C00AD8B4C3D7400AD8B4A7D7CE
:100CA0002A50D880D88427AE275CD8A0D884D8B45E
:100CB00003D027C02AF009D02A50D89027AE275C4D
:100CC000D8B0D880D8A02AC027F028502910D8B48E
:100CD00009D02BC016F0030E1616D8B403D0280680
:100CE000D8A029062CAC16D0800E27BE7F0E166E1B
:100CF0002850275C2950800A1658D8B007D02750B2
:100D0000285E000E27BEFF0E295A04D0000E296E61
:100D1000000E286EC40E166E080E176E2BC018F04B
:100D20002CC019F01650181617501916400E181826
:100D30000CE1080E1918D8A408D028502910D8B4EE
:100D400028D02806D8A0290624D0C00E166E080E7A
:100D5000176E2BC018F02CC019F01650181617502B
:100D60001916800E181815E1080E1918D8A411D0FC
:100D700029BE0BD0295004E1030E285CD8A005D071
:100D8000FE0E2826FF0E292204D0000E296E000E2A
:100D9000286E2A50166E176A2850165C1750800A63
:100DA000186E2950800A1858D8B005D02A50285EED
:100DB000000E295A04D0000E296E000E286E2BA4B6
:100DC0003ED02BC016F0030E1616D8B404D02D0E4C
:100DD000BEEC12F029D02BA004D0200EBEEC12F0F5
:100DE00023D0C00E166E080E176E2BC018F02CC044
:100DF00019F01650181617501916800E181814E10D
:100E0000080E1918D8A410D0300EBEEC12F02BBA70
:100E100004D0000E1B6E780E03D0000E1B6E580E11
:100E20001A6E1A50BEEC12F028502910D8B4D5D042
:100E3000300EBEEC12F02806D8A02906F5D72850AF
:100E40002910D8A42BB60AD0200EBEEC12F028062A
:100E5000D8A0290628502910D8A4F6D72BC016F000
:100E6000030E1616D8B404D02D0EBEEC12F005D029
:100E70002BA003D0200EBEEC12F0C00E166E080E92
:100E8000176E2BC018F02CC019F0165018161750FA
:100E90001916400E181808E1080E1918D8A404D025
:100EA000300EBEEC12F099D0C00E166E080E176E02
:100EB0002BC018F02CC019F0165018161750191620
:100EC000800E181814E1080E1918D8A486D0300E18
:100ED000BEEC12F02BBA04D0000E1D6E780E03D0BB
:100EE000000E1D6E580E1C6E1C50BEEC12F075D01C
:100EF0002750020DF3500D0F166E16C0F6FF080EA8
:100F0000F76E0900F5CF03F00A00F5CF04F025C015
:100F100001F026C002F00EEC11F001C008F002C092
:100F200009F0000E0B6E0A0E0A6E7BEC11F00850F1
:100F300040D025C001F026C002F02750020DF3502A
:100F4000170F166E16C0F6FF080EF76E0900F5CFE4
:100F500003F00A00F5CF04F00EEC11F001500F0B76
:100F60001E6E2BBA02D0300E01D01F0E1F6E1F5006
:100F70001E24166E16C0F6FF080EF76E0800F5CF99
:100F80002AF028D025C001F026C002F02750020D1B
:100F9000F350010F166E16C0F6FF080EF76E09002B
:100FA000F5CF03F00A00F5CF04F00EEC11F001507C
:100FB000070B300F2A6E0ED02B50C00B000AD8B48E
:100FC00097D7400AD8B4DED7C00AD8B4B2D7400AFF
:100FD000D8B48ED72A50BEEC12F027062728D8A402
:100FE000EBD72BB629BE0FD0295003E12804D8A097
:100FF0000AD0200EBEEC12F02806D8A029062850F0
:101000002910D8A4F6D70D2A0D04166E16C0F6FFC7
:10101000080EF76E0800F5CF2AF02A50D8B4120057
:1010200035D4000E0001786F000E776F000E7A6FD6
:101030007969000E7C6F000E7B6F000E7E6F000ED4
:101040007D6F000E806F7F69C0D2FF0E6D6F000E46
:101050006E6FFF0E6F6F010ED2EC11F0020E0001E9
:10106000746F860E736F990EE82EFED7732FFCD720
:10107000742FFAD7000E00016D6F000E6E6FFF0E19
:101080006F6F020ED2EC11F0020E0001746F860E2B
:10109000736F990EE82EFED7732FFCD7742FFAD7F3
:1010A000FF0E00016D6F000E6E6FFF0E6F6F030E6F
:1010B000D2EC11F0020E0001746F860E736F990E60
:1010C000E82EFED7732FFCD7742FFAD7000E00013D
:1010D0006D6F000E6E6FFF0E6F6F040ED2EC11F08D
:1010E000020E0001746F860E736F990EE82EFED704
:1010F000732FFCD7742FFAD7000E00016D6F000E0E
:101100006E6FFF0E6F6F010ED2EC11F0020E000138
:10111000746F860E736F990EE82EFED7732FFCD76F
:10112000742FFAD7FF0E00016D6F000E6E6FFF0E69
:101130006F6F020ED2EC11F0020E0001746F860E7A
:10114000736F990EE82EFED7732FFCD7742FFAD742
:10115000000E00016D6F000E6E6FFF0E6F6F030EBD
:10116000D2EC11F0020E0001746F860E736F990EAF
:10117000E82EFED7732FFCD7742FFAD7FF0E00018D
:101180006D6F000E6E6FFF0E6F6F040ED2EC11F0DC
:10119000020E0001746F860E736F990EE82EFED753
:1011A000732FFCD7742FFAD71200FF0E6D6F000E4D
:1011B0006E6FFF0E6F6F010EB8EC11F0020E0001A2
:1011C000746F860E736F990EE82EFED7732FFCD7BF
:1011D000742FFAD7000E00016D6F000E6E6FFF0EB8
:1011E0006F6F020EB8EC11F0020E0001746F860EE4
:1011F000736F990EE82EFED7732FFCD7742FFAD792
:10120000FF0E00016D6F000E6E6FFF0E6F6F030E0D
:10121000B8EC11F0020E0001746F860E736F990E18
:10122000E82EFED7732FFCD7742FFAD7000E0001DB
:101230006D6F000E6E6FFF0E6F6F040EB8EC11F045
:10124000020E0001746F860E736F990EE82EFED7A2
:10125000732FFCD7742FFAD7000E00016D6F000EAC
:101260006E6FFF0E6F6F010EB8EC11F0020E0001F1
:10127000746F860E736F990EE82EFED7732FFCD70E
:10128000742FFAD7FF0E00016D6F000E6E6FFF0E08
:101290006F6F020EB8EC11F0020E0001746F860E33
:1012A000736F990EE82EFED7732FFCD7742FFAD7E1
:1012B000000E00016D6F000E6E6FFF0E6F6F030E5C
:1012C000B8EC11F0020E0001746F860E736F990E68
:1012D000E82EFED7732FFCD7742FFAD7FF0E00012C
:1012E0006D6F000E6E6FFF0E6F6F040EB8EC11F095
:1012F000020E0001746F860E736F990EE82EFED7F2
:10130000732FFCD7742FFAD71200FF0E6D6F000EEB
:101310006E6FFF0E6F6F010ED2EC11F0020E000126
:10132000746F860E736F990EE82EFED7732FFCD75D
:10133000742FFAD7000E00016D6F000E6E6FFF0E56
:101340006F6F020ED2EC11F0020E0001746F860E68
:10135000736F990EE82EFED7732FFCD7742FFAD730
:10136000FF0E00016D6F000E6E6FFF0E6F6F030EAC
:10137000D2EC11F0020E0001746F860E736F990E9D
:10138000E82EFED7732FFCD7742FFAD7000E00017A
:101390006D6F000E6E6FFF0E6F6F040ED2EC11F0CA
:1013A000020E0001746F860E736F990EE82EFED741
:1013B000732FFCD7742FFAD7000E00016D6F000E4B
:1013C0006E6FFF0E6F6F010ED2EC11F0020E000176
:1013D000746F860E736F990EE82EFED7732FFCD7AD
:1013E000742FFAD7FF0E00016D6F000E6E6FFF0EA7
:1013F0006F6F020ED2EC11F0020E0001746F860EB8
:10140000736F990EE82EFED7732FFCD7742FFAD77F
:10141000000E00016D6F000E6E6FFF0E6F6F030EFA
:10142000D2EC11F0020E0001746F860E736F990EEC
:10143000E82EFED7732FFCD7742FFAD7FF0E0001CA
:101440006D6F000E6E6FFF0E6F6F040ED2EC11F019
:10145000020E0001746F860E736F990EE82EFED790
:10146000732FFCD7742FFAD7FF0E00016D6F000E9B
:101470006E6FFF0E6F6F010EB8EC11F0020E0001DF
:10148000746F860E736F990EE82EFED7732FFCD7FC
:10149000742FFAD7000E00016D6F000E6E6FFF0EF5
:1014A0006F6F020EB8EC11F0020E0001746F860E21
:1014B000736F990EE82EFED7732FFCD7742FFAD7CF
:1014C000FF0E00016D6F000E6E6FFF0E6F6F030E4B
:1014D000B8EC11F0020E0001746F860E736F990E56
:1014E000E82EFED7732FFCD7742FFAD7000E000119
:1014F0006D6F000E6E6FFF0E6F6F040EB8EC11F083
:10150000020E0001746F860E736F990EE82EFED7DF
:10151000732FFCD7742FFAD7000E00016D6F000EE9
:101520006E6FFF0E6F6F010EB8EC11F0020E00012E
:10153000746F860E736F990EE82EFED7732FFCD74B
:10154000742FFAD7FF0E00016D6F000E6E6FFF0E45
:101550006F6F020EB8EC11F0020E0001746F860E70
:10156000736F990EE82EFED7732FFCD7742FFAD71E
:10157000000E00016D6F000E6E6FFF0E6F6F030E99
:10158000B8EC11F0020E0001746F860E736F990EA5
:10159000E82EFED7732FFCD7742FFAD7FF0E000169
:1015A0006D6F000E6E6FFF0E6F6F040EB8EC11F0D2
:1015B000020E0001746F860E736F990EE82EFED72F
:1015C000732FFCD7742FFAD7120071C073F072C05A
:1015D00074F07451000AD8A412007351000AD8B4F0
:1015E00034D5010AD8B4E1D5030AD8A412008DD6A7
:1015F0002D50D96EDA6A020ED926DF502E6E2D508C
:10160000D96EDA6A030ED926DF502F6E2D50D96EAF
:10161000DA6A040ED926DF50306E000E316E2D507E
:10162000D96EDA6A020ED926DF50326E000E336EA2
:101630002DC001F07C0E026E000E046E020E036ED1
:10164000D9EC10F001500210D8A42DD04B0E0D6E25
:10165000000E0F6E000E0E6E820E106E1050D8A48B
:10166000080E116E57C012F058C013F0000E156E20
:101670000D0E146E43EC04F0410E0D6E000E0F6E55
:10168000010E0E6E820E106E1050D8A4080E116E50
:1016900059C012F05AC013F0000E156E0D0E146EE4
:1016A00043EC04F012002DC001F0670E026E000E34
:1016B000046E020E036ED9EC10F001500210D8A493
:1016C00003D05AEC11F012002DC001F0700E026E22
:1016D000000E046E020E036ED9EC10F001500210E1
:1016E000D8A41AD0000E0F6E010E0E6E2E0E076ECD
:1016F0007FEC0FF007C010F008C011F037EC11F0CC
:101700005C0E0D6E2DC00EF00F6A000E116E010EF4
:10171000106E43EC04F012002DC001F06A0E026E50
:10172000000E046E020E036ED9EC10F00150021090
:10173000D8A41AD0000E0F6E000E0E6E2E0E076E7D
:101740007FEC0FF007C010F008C011F037EC11F07B
:101750005C0E0D6E2DC00EF00F6A000E116E000EA5
:10176000106E43EC04F012002DC001F0760E026EF4
:10177000000E046E020E036ED9EC10F00150021040
:10178000D8A433D0000E0F6E000E0E6E2E0E076E14
:101790007FEC0FF007C010F008C011F037EC11F02B
:1017A000000E0F6E010E0E6E2E0E076E7FEC0FF008
:1017B00007C010F008C011F037EC11F05C0E0D6E90
:1017C0002DC00EF00F6A000E116E000E106E43EC6D
:1017D00004F05C0E0D6E2DC00EF00F6A000E116E3F
:1017E000010E106E43EC04F012002DC001F0790ED2
:1017F000026E000E046E020E036ED9EC10F0015062
:101800000210D8A41BD0000E026E020E016E87ECEF
:1018100012F0320E076E7FEC0FF007C00EF008C01A
:101820000FF0ECEC11F05C0E0D6E2DC00EF00F6A97
:10183000320E106E116A43EC04F012002DC001F05C
:10184000730E026E000E046E020E036ED9EC10F0E1
:1018500001500210D8A41BD0000E026E010E016EC2
:1018600087EC12F0320E076E7FEC0FF007C00EF01F
:1018700008C00FF0ECEC11F05C0E0D6E2DC00EF0F8
:101880000F6A320E106E116A43EC04F012002DC084
:1018900001F06D0E026E000E046E020E036ED9ECA6
:1018A00010F001500210D8A41BD0000E026E000EE2
:1018B000016E87EC12F0320E076E7FEC0FF007C05E
:1018C0000EF008C00FF0ECEC11F05C0E0D6E2DC0A8
:1018D0000EF00F6A320E106E116A43EC04F0120023
:1018E0002DC001F07F0E026E000E046E020E036E1C
:1018F000D9EC10F001500210D8A41200630E0D6E46
:1019000043EC04F01200000E00017E6F7D69000EB2
:10191000806F7F69000E826F816926D1010E756F1D
:101920007DC06DF07FC06EF081C06FF07529D2EC84
:1019300011F0040E0001746F0C0E736F330EE82E5D
:10194000FED7732FFCD7742FFAD700D00001752B68
:10195000040E7565E5D7050E766F010E6B6F040EEC
:1019600079EC12F0000E00016B6F760579EC12F045
:101970007FC061F081C062F0010E0001636F010E53
:10198000646F7D510FEC0FF0040E0001746F0C0EAC
:10199000736F330EE82EFED7732FFCD7742FFAD750
:1019A00000D0000176077651D8B41200D6D7010EC8
:1019B000776F7DC06DF07FC06EF081C06FF07729CA
:1019C000B8EC11F0040E0001746F0C0E736F330E3F
:1019D000E82EFED7732FFCD7742FFAD700D0000162
:1019E000772B040E7765E5D7050E786F010E6B6FC8
:1019F000040E6BEC12F0000E00016B6F78056BECBF
:101A000012F07FC061F081C062F0010E0001636FCF
:101A1000010E646F7D519FEC0EF0040E0001746F97
:101A20000C0E736F330EE82EFED7732FFCD7742F76
:101A3000FAD700D0000178077851D8B41200D6D771
:101A4000000E796F7DC06DF07FC06EF081C06FF0C9
:101A50007929D2EC11F0040E0001746F0C0E736F33
:101A6000330EE82EFED7732FFCD7742FFAD700D091
:101A70000001792B030E7965E5D7030E7A6F26D026
:101A8000010E6B6F040E79EC12F0000E00016B6F0B
:101A90007A0579EC12F07FC061F081C062F0010E2E
:101AA0000001636F010E646F7D510FEC0FF0040EA7
:101AB0000001746F0C0E736F330EE82EFED7732F78
:101AC000FCD7742FFAD700D000017A077A51D8A436
:101AD000D7D7000E7B6F030E7B6501D019D07DC078
:101AE0006DF07FC06EF081C06FF07B29B8EC11F013
:101AF000040E0001746F0C0E736F330EE82EFED7C8
:101B0000732FFCD7742FFAD700D000017B2BE3D7BB
:101B1000030E7C6F7C51D8B41200010E6B6F040E63
:101B20006BEC12F0000E00016B6F7C056BEC12F099
:101B30007FC061F081C062F0010E0001636F010E91
:101B4000646F7D519FEC0EF0040E0001746F0C0E5B
:101B5000736F330EE82EFED7732FFCD7742FFAD78E
:101B600000D000017C07D6D771C073F072C074F04A
:101B70007451000AD8A412007351000AD8B4CED60A
:101B8000010AD8B414D7030AD8A4120059D7C3D075
:101B9000000E706F6F696FC077F070C078F0000E44
:101BA000616F000E626F040E636F010E646F7751F8
:101BB0000FEC0FF077C061F077C062F0030E000108
:101BC000636F010E646F77510FEC0FF077C061F017
:101BD000000E0001626F010E636F010E646F000E54
:101BE0000FEC0FF000016F07D8A0700778BF12004C
:101BF000D2D7000E726F716971C077F072C078F041
:101C0000000E616F000E626F040E636F010E646F51
:101C100077519FEC0EF077C061F077C062F0030E51
:101C20000001636F010E646F77519FEC0EF077C077
:101C300061F0000E0001626F010E636F010E646FB0
:101C4000000E9FEC0EF000017107D8A0720778BF5C
:101C50001200D2D7000E746F736973C077F074C02E
:101C600078F0000E616F000E626F040E636F010E5C
:101C7000646F77510FEC0FF077C061F077C062F0BE
:101C8000030E0001636F010E646F77510FEC0FF0CC
:101C900077C061F0000E0001626F010E636F010EEC
:101CA000646F000E0FEC0FF000017307D8A07407EB
:101CB00078AFD3D7000E766F756975C077F076C0B0
:101CC00078F0000E616F000E626F040E636F010EFC
:101CD000646F77519FEC0EF077C061F077C062F0CF
:101CE000030E0001636F010E646F77519FEC0EF0DD
:101CF00077C061F0000E0001626F010E636F010E8C
:101D0000646F000E9FEC0EF000017507D8A07607F7
:101D100078BF1200D2D76BC06DF06CC06EF00001BE
:101D20006E51000AD8A412006D51000AD8B430D701
:101D3000010AD8B45ED7030AD8A412008BD7656F06
:101D4000000E0001666F61D061C06AF0000E676F1F
:101D50006ABF08D0818200D000D08192030EE82EA5
:101D6000FED70AD0818200D000D000D000D081926E
:101D700000D000D000D000F000016A516A256A6FDF
:101D8000672B070E6765E4D765C06AF0000E686FC1
:101D90006ABF08D0818200D000D08192030EE82E65
:101DA000FED70AD0818200D000D000D000D081922E
:101DB00000D000D000D000F000016A516A256A6F9F
:101DC000682B070E6865E4D762C06AF0000E696F81
:101DD0006ABF08D0818200D000D08192030EE82E25
:101DE000FED70AD0818200D000D000D000D08192EE
:101DF00000D000D000D000F000016A516A256A6F5F
:101E0000692B070E6965E4D7662B6351665DD8A020
:101E10009BD76405D8A41200A0EC12F01200656FE5
:101E2000000E0001666F61D061C06AF0000E676F3E
:101E30006ABF08D0818000D000D08190030EE82EC8
:101E4000FED70AD0818000D000D000D000D0819091
:101E500000D000D000D000F000016A516A256A6FFE
:101E6000672B070E6765E4D765C06AF0000E686FE0
:101E70006ABF08D0818000D000D08190030EE82E88
:101E8000FED70AD0818000D000D000D000D0819051
:101E900000D000D000D000F000016A516A256A6FBE
:101EA000682B070E6865E4D762C06AF0000E696FA0
:101EB0006ABF08D0818000D000D08190030EE82E48
:101EC000FED70AD0818000D000D000D000D0819011
:101ED00000D000D000D000F000016A516A256A6F7E
:101EE000692B070E6965E4D7662B6351665DD8A040
:101EF0009BD76405D8A41200ABEC12F0120001D0FD
:101F0000072A0750D96EDA6A200EDE18D8B4F8D73F
:101F10000750D96EDA6A090EDE18D8B4F1D7000E70
:101F20000D6E000E0C6E000E0B6E0750D96EDA6A45
:101F30002D0EDE18D8A402D00B2A07D00750D96E78
:101F4000DA6A2B0EDE18D8A41CD0072A1AD00CC0CF
:101F500001F00DC002F0000E046E0A0E036E18ECC4
:101F600012F00750D96EDA6ADF50096E0950012667
:101F7000000E0222D00E01240C6EFF0E02200D6E08
:101F8000E4D70750D96EDA6ADF504EEC12F0D8B0C1
:101F9000DED70B50D8B40DD00CC009F00DC00AF03C
:101FA000091E0A1E094A0A2A09C007F00AC008F0D9
:101FB00012000CC007F00DC008F012000600D9CFC7
:101FC00034F0DACF35F0F3CF36F0F4CF37F0F6CF88
:101FD00038F0F7CF39F0F8CF3AF0F5CF3BF09EAAC2
:101FE00037D0ABA203D0AB9800F0AB88AECF44F0B3
:101FF0002AD0470E2D6EF8EC0AF0470E046E000E44
:10200000066E000E056E470E016E3DEC12F001C02B
:1020100007F002C008F02BEC12F0000E416E000E2B
:10202000406E16D041BE06D04150E3E1100E405C38
:10203000D8B0DFD74050470FD96EDA6A44C0DFFF0F
:10204000404A412A05D044500D0AD8B4D2D7EAD725
:102050003BC0F5FF3AC0F8FF39C0F7FF38C0F6FFC4
:1020600037C0F4FF36C0F3FF35C0DAFF34C0D9FF04
:102070005E921100000E0001726F000E716F000E73
:10208000746F000E736F30D0000E616F000E626FC0
:10209000040E636F010E646FFF0E0FEC0FF036D06D
:1020A000000E616F000E626F040E636F010E646FAD
:1020B000FF0E9FEC0EF02AD0000E616F000E626FD3
:1020C000040E636F010E646FFF0E0FEC0FF0000E35
:1020D0000001616F000E626F040E636F010E646F8A
:1020E000FF0E9FEC0EF012D06BC06DF06CC06EF066
:1020F0006E51000AD8A40AD06D51000AD8B4C4D7D2
:10210000010AD8B4CDD7030AD8B4D6D7ABEC12F0B5
:10211000A0EC12F01200000E0001886F000E876F15
:102120008751020DF3503C0FD96EDA6ADECF85F08D
:10213000DDCF86F01CD087C06BF088C06CF03AEC25
:1021400010F02AD087C071F088C072F083EC0CF0D8
:1021500023D087C071F088C072F011EC08F01CD059
:1021600087C06BF088C06CF0C7EC0DF015D085C04F
:1021700083F086C084F08451000AD8A40DD0835126
:10218000000AD8B4D8D7010AD8B4DCD7030AD8B427
:10219000E0D7010AD8B4E4D70001874B882B88BF69
:1021A000BFD7885105E1020E875DD8B01200B8D7BD
:1021B000120027D00150D96EDA6ADF50D8B40ED0A1
:1021C0000150D96EDA6ADF50056E02C0F6FF080EC4
:1021D000F76E0800F5500518D8B411D00150D96E2B
:1021E000DA6ADF50056E02C0F6FF080EF76E0800CF
:1021F000F550055C016E026AD8A002061200012AA1
:10220000022A0306D8A004060328D4E10428D8A48F
:10221000D1D7000E026E000E016E1200000E066E87
:10222000000E056E03500410D8B41CD0010E076ECA
:1022300004D0D89003360436072A04AEFAD7D890D3
:10224000053606360350015C04500258D8A005D06C
:102250000350015E0450025A0580D89004320332C4
:10226000072EEDD705C001F006C002F0120012D013
:1022700010C057F011C058F05750020DF3CFBEFFF9
:10228000120010C059F011C05AF05950020DF3CF8E
:10229000BBFF12000EC012F00FC013F01350000A63
:1022A000D8A412001250000AD8B4E2D7010AD8A468
:1022B0001200E7D7000E026E020E016E87EC12F0DC
:1022C000000E0F6E000E0E6EECEC11F0000E0F6E95
:1022D000000E0E6E000E116E210E106E37EC11F016
:1022E000000E0F6E010E0E6E000E116E210E106E9E
:1022F00037EC11F012000A500B10D8B418D0010EB0
:102300000C6E04D0D8900A360B360C2A0BAEFAD7D6
:102310000A50085C0B500958D8A004D00A50085E37
:102320000B50095AD8900B320A320C2EF1D708C044
:1023300008F009C009F012008C0EF66E250EF76E3B
:10234000000EF86E0900F5CF5BF00900F5CF5CF0E8
:102350000900F5CF5DF000EE3CF01F0EEE6AE806D6
:10236000FDE15E905E92000EF86E00015DEF12F0EE
:10237000706F010E00016B6F040E6BEC12F0000E1B
:1023800000016B6F70056BEC12F06EC061F06FC0F6
:1023900062F0010E0001636F010E646F6D519FECDE
:1023A0000EF01200706F010E00016B6F040E79ECDD
:1023B00012F0000E00016B6F700579EC12F06EC028
:1023C00061F06FC062F0010E0001636F010E646F77
:1023D0006D510FEC0FF01200020E5B185C10D8A4C8
:1023E00009D00EC03CF00FC03DF00EC03EF00FC053
:1023F0003FF012005B50020DF3503C0FD96EDA6AC9
:102400000EC0DEFF0FC0DDFF120094929494BD5009
:10241000F00B0C09BD6EBA50F00B0C09BA6ECB680C
:10242000CA84030ECA12000EBE6E000EBB6E1200EE
:1024300001500302F3CF05F0F4CF06F0015004027F
:10244000F350062602500302F350062605C001F0A1
:1024500006C002F0120004C009F006D00950D96E7F
:10246000DA6A05C0DFFF092A0706D8A00806072890
:10247000F5E10828D8B41200F1D701C003F001D06B
:10248000032A0350D96EDA6ADF50D8A4F9D7015075
:10249000035C016E026A01BE02061200036E000EAA
:1024A000026E3A0E036005D02F0E036402D0010EB7
:1024B000026E02C001F00130120005EC12F0F28E43
:1024C000F28C9E9A9D8A9F8A94EC12F0B6EC12F0E0
:1024D0008BEC10F0FDD76C6F000E0001616F000EE9
:1024E000626F6CC063F06BC064F0000E9FEC0EF086
:1024F00012006C6F000E0001616F000E626F6CC005
:1025000063F06BC064F0000E0FEC0FF0120002BE1F
:1025100006D0025008E1030E015CD8B0120001C0E1
:102520005BF002C05CF01200949C948EAC9CAC8A70
:10253000AC98AC94B896AB8EAB884D0EAF6E1200D3
:102540008192100E0001606F940EE82EFED7602F6E
:10255000FCD700F012008190100E0001606F940E05
:10256000E82EFED7602FFCD700F0120093908190E8
:1025700093928192C80EE82EFED71200016E9EA89B
:0F258000FED7ACA2FED701C0ADFF12000200FFD4
:020000040030CA
:0E000000040E1F1EFF8181FF0FC00FE00F4096
:00000001FF
